{
    "_format": "hh-sol-artifact-1",
    "contractName": "WavePortal",
    "sourceName": "contracts/WavePortal.sol",
    "abi": [
        {
            "inputs": [],
            "stateMutability": "nonpayable",
            "type": "constructor"
        },
        {
            "inputs": [
                {
                    "internalType": "string",
                    "name": "message",
                    "type": "string"
                }
            ],
            "name": "createWave",
            "outputs": [
                {
                    "internalType": "bool",
                    "name": "",
                    "type": "bool"
                }
            ],
            "stateMutability": "nonpayable",
            "type": "function"
        },
        {
            "inputs": [],
            "name": "totalWaves",
            "outputs": [
                {
                    "internalType": "uint256",
                    "name": "",
                    "type": "uint256"
                }
            ],
            "stateMutability": "view",
            "type": "function"
        }
    ],
    "bytecode": "0x608060405234801561001057600080fd5b506100596040518060400160405280601b81526020017f536d61727420636f6e7472616374732068657265204920636f6d65000000000081525061005e60201b6101721760201c565b6101e1565b6100fa81604051602401610072919061015f565b6040516020818303038152906040527f41304fac000000000000000000000000000000000000000000000000000000007bffffffffffffffffffffffffffffffffffffffffffffffffffffffff19166020820180517bffffffffffffffffffffffffffffffffffffffffffffffffffffffff83818316178352505050506100fd60201b60201c565b50565b60008151905060006a636f6e736f6c652e6c6f679050602083016000808483855afa5050505050565b600061013182610181565b61013b818561018c565b935061014b81856020860161019d565b610154816101d0565b840191505092915050565b600060208201905081810360008301526101798184610126565b905092915050565b600081519050919050565b600082825260208201905092915050565b60005b838110156101bb5780820151818401526020810190506101a0565b838111156101ca576000848401525b50505050565b6000601f19601f8301169050919050565b610793806101f06000396000f3fe608060405234801561001057600080fd5b50600436106100365760003560e01c8063291bcab31461003b578063e2f71d3e14610059575b600080fd5b610043610089565b60405161005091906104ef565b60405180910390f35b610073600480360381019061006e91906103db565b61008f565b6040516100809190610482565b60405180910390f35b60005481565b60006040518060400160405280600054815260200183815250600160003373ffffffffffffffffffffffffffffffffffffffff1673ffffffffffffffffffffffffffffffffffffffff16815260200190815260200160002060008201518160000155602082015181600101908051906020019061010d9291906102d0565b509050506001600080828254610123919061057c565b925050819055506101696040518060400160405280600e81526020017f25732073656e74206120776176650000000000000000000000000000000000008152503361020b565b60019050919050565b61020881604051602401610186919061049d565b6040516020818303038152906040527f41304fac000000000000000000000000000000000000000000000000000000007bffffffffffffffffffffffffffffffffffffffffffffffffffffffff19166020820180517bffffffffffffffffffffffffffffffffffffffffffffffffffffffff83818316178352505050506102a7565b50565b6102a382826040516024016102219291906104bf565b6040516020818303038152906040527f319af333000000000000000000000000000000000000000000000000000000007bffffffffffffffffffffffffffffffffffffffffffffffffffffffff19166020820180517bffffffffffffffffffffffffffffffffffffffffffffffffffffffff83818316178352505050506102a7565b5050565b60008151905060006a636f6e736f6c652e6c6f679050602083016000808483855afa5050505050565b8280546102dc9061065c565b90600052602060002090601f0160209004810192826102fe5760008555610345565b82601f1061031757805160ff1916838001178555610345565b82800160010185558215610345579182015b82811115610344578251825591602001919060010190610329565b5b5090506103529190610356565b5090565b5b8082111561036f576000816000905550600101610357565b5090565b60006103866103818461052f565b61050a565b90508281526020810184848401111561039e57600080fd5b6103a984828561061a565b509392505050565b600082601f8301126103c257600080fd5b81356103d2848260208601610373565b91505092915050565b6000602082840312156103ed57600080fd5b600082013567ffffffffffffffff81111561040757600080fd5b610413848285016103b1565b91505092915050565b610425816105d2565b82525050565b610434816105e4565b82525050565b600061044582610560565b61044f818561056b565b935061045f818560208601610629565b6104688161074c565b840191505092915050565b61047c81610610565b82525050565b6000602082019050610497600083018461042b565b92915050565b600060208201905081810360008301526104b7818461043a565b905092915050565b600060408201905081810360008301526104d9818561043a565b90506104e8602083018461041c565b9392505050565b60006020820190506105046000830184610473565b92915050565b6000610514610525565b9050610520828261068e565b919050565b6000604051905090565b600067ffffffffffffffff82111561054a5761054961071d565b5b6105538261074c565b9050602081019050919050565b600081519050919050565b600082825260208201905092915050565b600061058782610610565b915061059283610610565b9250827fffffffffffffffffffffffffffffffffffffffffffffffffffffffffffffffff038211156105c7576105c66106bf565b5b828201905092915050565b60006105dd826105f0565b9050919050565b60008115159050919050565b600073ffffffffffffffffffffffffffffffffffffffff82169050919050565b6000819050919050565b82818337600083830152505050565b60005b8381101561064757808201518184015260208101905061062c565b83811115610656576000848401525b50505050565b6000600282049050600182168061067457607f821691505b60208210811415610688576106876106ee565b5b50919050565b6106978261074c565b810181811067ffffffffffffffff821117156106b6576106b561071d565b5b80604052505050565b7f4e487b7100000000000000000000000000000000000000000000000000000000600052601160045260246000fd5b7f4e487b7100000000000000000000000000000000000000000000000000000000600052602260045260246000fd5b7f4e487b7100000000000000000000000000000000000000000000000000000000600052604160045260246000fd5b6000601f19601f830116905091905056fea2646970667358221220b111f84534d8d8964f256124d11f114041f775ee4cd06ecaf725f79d577368a764736f6c63430008040033",
    "linkReferences": {},
    "deployedLinkReferences": {}
}