{
    "_format": "hh-sol-artifact-1",
    "contractName": "WavePortal",
    "sourceName": "contracts/WavePortal.sol",
    "abi": [
        {
            "inputs": [],
            "stateMutability": "nonpayable",
            "type": "constructor"
        },
        {
            "anonymous": false,
            "inputs": [
                {
                    "indexed": true,
                    "internalType": "address",
                    "name": "from",
                    "type": "address"
                },
                {
                    "indexed": false,
                    "internalType": "uint256",
                    "name": "timestamp",
                    "type": "uint256"
                },
                {
                    "indexed": false,
                    "internalType": "string",
                    "name": "message",
                    "type": "string"
                }
            ],
            "name": "WaveSubmitted",
            "type": "event"
        },
        {
            "inputs": [
                {
                    "internalType": "string",
                    "name": "message",
                    "type": "string"
                }
            ],
            "name": "createWave",
            "outputs": [
                {
                    "internalType": "bool",
                    "name": "",
                    "type": "bool"
                }
            ],
            "stateMutability": "nonpayable",
            "type": "function"
        },
        {
            "inputs": [],
            "name": "getAllWaves",
            "outputs": [
                {
                    "components": [
                        {
                            "internalType": "address",
                            "name": "sender",
                            "type": "address"
                        },
                        {
                            "internalType": "uint256",
                            "name": "key",
                            "type": "uint256"
                        },
                        {
                            "internalType": "string",
                            "name": "message",
                            "type": "string"
                        }
                    ],
                    "internalType": "struct Wave[]",
                    "name": "",
                    "type": "tuple[]"
                }
            ],
            "stateMutability": "view",
            "type": "function"
        },
        {
            "inputs": [],
            "name": "totalWaves",
            "outputs": [
                {
                    "internalType": "uint256",
                    "name": "",
                    "type": "uint256"
                }
            ],
            "stateMutability": "view",
            "type": "function"
        }
    ],
    "bytecode": "0x60806040523480156200001157600080fd5b506200005d6040518060400160405280601b81526020017f536d61727420636f6e7472616374732068657265204920636f6d6500000000008152506200006360201b6200038a1760201c565b620001f7565b62000103816040516024016200007a919062000170565b6040516020818303038152906040527f41304fac000000000000000000000000000000000000000000000000000000007bffffffffffffffffffffffffffffffffffffffffffffffffffffffff19166020820180517bffffffffffffffffffffffffffffffffffffffffffffffffffffffff83818316178352505050506200010660201b60201c565b50565b60008151905060006a636f6e736f6c652e6c6f679050602083016000808483855afa5050505050565b60006200013c8262000194565b6200014881856200019f565b93506200015a818560208601620001b0565b6200016581620001e6565b840191505092915050565b600060208201905081810360008301526200018c81846200012f565b905092915050565b600081519050919050565b600082825260208201905092915050565b60005b83811015620001d0578082015181840152602081019050620001b3565b83811115620001e0576000848401525b50505050565b6000601f19601f8301169050919050565b610b7780620002076000396000f3fe608060405234801561001057600080fd5b50600436106100415760003560e01c8063291bcab314610046578063bd43a90814610064578063e2f71d3e14610082575b600080fd5b61004e6100b2565b60405161005b9190610859565b60405180910390f35b61006c6100b8565b60405161007991906107ca565b60405180910390f35b61009c600480360381019061009791906105f3565b610209565b6040516100a991906107ec565b60405180910390f35b60005481565b60606001805480602002602001604051908101604052809291908181526020016000905b8282101561020057838290600052602060002090600302016040518060600160405290816000820160009054906101000a900473ffffffffffffffffffffffffffffffffffffffff1673ffffffffffffffffffffffffffffffffffffffff1673ffffffffffffffffffffffffffffffffffffffff1681526020016001820154815260200160028201805461016f90610a40565b80601f016020809104026020016040519081016040528092919081815260200182805461019b90610a40565b80156101e85780601f106101bd576101008083540402835291602001916101e8565b820191906000526020600020905b8154815290600101906020018083116101cb57829003601f168201915b505050505081525050815260200190600101906100dc565b50505050905090565b6000600160405180606001604052803373ffffffffffffffffffffffffffffffffffffffff168152602001600054815260200184815250908060018154018082558091505060019003906000526020600020906003020160009091909190915060008201518160000160006101000a81548173ffffffffffffffffffffffffffffffffffffffff021916908373ffffffffffffffffffffffffffffffffffffffff1602179055506020820151816001015560408201518160020190805190602001906102d69291906104e8565b50505060016000808282546102eb9190610960565b925050819055506103316040518060400160405280600e81526020017f25732073656e742061207761766500000000000000000000000000000000000081525033610423565b3373ffffffffffffffffffffffffffffffffffffffff167ffb0eedb3dd967ac80a078ed8693cc6cca8402f3aa7070510e3edf24ff07011e74284604051610379929190610874565b60405180910390a260019050919050565b6104208160405160240161039e9190610807565b6040516020818303038152906040527f41304fac000000000000000000000000000000000000000000000000000000007bffffffffffffffffffffffffffffffffffffffffffffffffffffffff19166020820180517bffffffffffffffffffffffffffffffffffffffffffffffffffffffff83818316178352505050506104bf565b50565b6104bb8282604051602401610439929190610829565b6040516020818303038152906040527f319af333000000000000000000000000000000000000000000000000000000007bffffffffffffffffffffffffffffffffffffffffffffffffffffffff19166020820180517bffffffffffffffffffffffffffffffffffffffffffffffffffffffff83818316178352505050506104bf565b5050565b60008151905060006a636f6e736f6c652e6c6f679050602083016000808483855afa5050505050565b8280546104f490610a40565b90600052602060002090601f016020900481019282610516576000855561055d565b82601f1061052f57805160ff191683800117855561055d565b8280016001018555821561055d579182015b8281111561055c578251825591602001919060010190610541565b5b50905061056a919061056e565b5090565b5b8082111561058757600081600090555060010161056f565b5090565b600061059e610599846108c9565b6108a4565b9050828152602081018484840111156105b657600080fd5b6105c18482856109fe565b509392505050565b600082601f8301126105da57600080fd5b81356105ea84826020860161058b565b91505092915050565b60006020828403121561060557600080fd5b600082013567ffffffffffffffff81111561061f57600080fd5b61062b848285016105c9565b91505092915050565b6000610640838361075c565b905092915050565b610651816109b6565b82525050565b610660816109b6565b82525050565b60006106718261090a565b61067b818561092d565b93508360208202850161068d856108fa565b8060005b858110156106c957848403895281516106aa8582610634565b94506106b583610920565b925060208a01995050600181019050610691565b50829750879550505050505092915050565b6106e4816109c8565b82525050565b60006106f582610915565b6106ff818561093e565b935061070f818560208601610a0d565b61071881610b30565b840191505092915050565b600061072e82610915565b610738818561094f565b9350610748818560208601610a0d565b61075181610b30565b840191505092915050565b60006060830160008301516107746000860182610648565b50602083015161078760208601826107ac565b506040830151848203604086015261079f82826106ea565b9150508091505092915050565b6107b5816109f4565b82525050565b6107c4816109f4565b82525050565b600060208201905081810360008301526107e48184610666565b905092915050565b600060208201905061080160008301846106db565b92915050565b600060208201905081810360008301526108218184610723565b905092915050565b600060408201905081810360008301526108438185610723565b90506108526020830184610657565b9392505050565b600060208201905061086e60008301846107bb565b92915050565b600060408201905061088960008301856107bb565b818103602083015261089b8184610723565b90509392505050565b60006108ae6108bf565b90506108ba8282610a72565b919050565b6000604051905090565b600067ffffffffffffffff8211156108e4576108e3610b01565b5b6108ed82610b30565b9050602081019050919050565b6000819050602082019050919050565b600081519050919050565b600081519050919050565b6000602082019050919050565b600082825260208201905092915050565b600082825260208201905092915050565b600082825260208201905092915050565b600061096b826109f4565b9150610976836109f4565b9250827fffffffffffffffffffffffffffffffffffffffffffffffffffffffffffffffff038211156109ab576109aa610aa3565b5b828201905092915050565b60006109c1826109d4565b9050919050565b60008115159050919050565b600073ffffffffffffffffffffffffffffffffffffffff82169050919050565b6000819050919050565b82818337600083830152505050565b60005b83811015610a2b578082015181840152602081019050610a10565b83811115610a3a576000848401525b50505050565b60006002820490506001821680610a5857607f821691505b60208210811415610a6c57610a6b610ad2565b5b50919050565b610a7b82610b30565b810181811067ffffffffffffffff82111715610a9a57610a99610b01565b5b80604052505050565b7f4e487b7100000000000000000000000000000000000000000000000000000000600052601160045260246000fd5b7f4e487b7100000000000000000000000000000000000000000000000000000000600052602260045260246000fd5b7f4e487b7100000000000000000000000000000000000000000000000000000000600052604160045260246000fd5b6000601f19601f830116905091905056fea2646970667358221220a1ae2087e52d2c8d2906f77276e0a89fd6c44ff478da4a2607936f407757417c64736f6c63430008040033",
    "linkReferences": {},
    "deployedLinkReferences": {}
}