{
    "_format": "hh-sol-artifact-1",
    "contractName": "WavePortal",
    "sourceName": "contracts/WavePortal.sol",
    "abi": [
        {
            "inputs": [],
            "stateMutability": "payable",
            "type": "constructor"
        },
        {
            "anonymous": false,
            "inputs": [
                {
                    "indexed": true,
                    "internalType": "address",
                    "name": "from",
                    "type": "address"
                },
                {
                    "indexed": false,
                    "internalType": "uint256",
                    "name": "timestamp",
                    "type": "uint256"
                },
                {
                    "indexed": false,
                    "internalType": "string",
                    "name": "message",
                    "type": "string"
                }
            ],
            "name": "WaveSubmitted",
            "type": "event"
        },
        {
            "inputs": [
                {
                    "internalType": "string",
                    "name": "message",
                    "type": "string"
                }
            ],
            "name": "createWave",
            "outputs": [
                {
                    "internalType": "bool",
                    "name": "",
                    "type": "bool"
                }
            ],
            "stateMutability": "payable",
            "type": "function"
        },
        {
            "inputs": [],
            "name": "getAllWaves",
            "outputs": [
                {
                    "components": [
                        {
                            "internalType": "address",
                            "name": "sender",
                            "type": "address"
                        },
                        {
                            "internalType": "uint256",
                            "name": "key",
                            "type": "uint256"
                        },
                        {
                            "internalType": "string",
                            "name": "message",
                            "type": "string"
                        }
                    ],
                    "internalType": "struct Wave[]",
                    "name": "",
                    "type": "tuple[]"
                }
            ],
            "stateMutability": "view",
            "type": "function"
        },
        {
            "inputs": [
                {
                    "internalType": "address",
                    "name": "",
                    "type": "address"
                }
            ],
            "name": "lastWaved",
            "outputs": [
                {
                    "internalType": "uint256",
                    "name": "",
                    "type": "uint256"
                }
            ],
            "stateMutability": "view",
            "type": "function"
        },
        {
            "inputs": [],
            "name": "totalWaves",
            "outputs": [
                {
                    "internalType": "uint256",
                    "name": "",
                    "type": "uint256"
                }
            ],
            "stateMutability": "view",
            "type": "function"
        }
    ],
    "bytecode": "0x60806040526200004f6040518060400160405280601b81526020017f536d61727420636f6e7472616374732068657265204920636f6d6500000000008152506200007760201b620005bb1760201c565b606444426200005f9190620001c4565b6200006b919062000261565b60028190555062000308565b62000117816040516024016200008e919062000184565b6040516020818303038152906040527f41304fac000000000000000000000000000000000000000000000000000000007bffffffffffffffffffffffffffffffffffffffffffffffffffffffff19166020820180517bffffffffffffffffffffffffffffffffffffffffffffffffffffffff83818316178352505050506200011a60201b60201c565b50565b60008151905060006a636f6e736f6c652e6c6f679050602083016000808483855afa5050505050565b60006200015082620001a8565b6200015c8185620001b3565b93506200016e8185602086016200022b565b6200017981620002f7565b840191505092915050565b60006020820190508181036000830152620001a0818462000143565b905092915050565b600081519050919050565b600082825260208201905092915050565b6000620001d18262000221565b9150620001de8362000221565b9250827fffffffffffffffffffffffffffffffffffffffffffffffffffffffffffffffff0382111562000216576200021562000299565b5b828201905092915050565b6000819050919050565b60005b838110156200024b5780820151818401526020810190506200022e565b838111156200025b576000848401525b50505050565b60006200026e8262000221565b91506200027b8362000221565b9250826200028e576200028d620002c8565b5b828206905092915050565b7f4e487b7100000000000000000000000000000000000000000000000000000000600052601160045260246000fd5b7f4e487b7100000000000000000000000000000000000000000000000000000000600052601260045260246000fd5b6000601f19601f8301169050919050565b610f4080620003186000396000f3fe60806040526004361061003f5760003560e01c8063291bcab314610044578063bd43a9081461006f578063e2f71d3e1461009a578063f4920770146100ca575b600080fd5b34801561005057600080fd5b50610059610107565b6040516100669190610aee565b60405180910390f35b34801561007b57600080fd5b5061008461010d565b6040516100919190610a2f565b60405180910390f35b6100b460048036038101906100af91906107c6565b61025e565b6040516100c19190610a51565b60405180910390f35b3480156100d657600080fd5b506100f160048036038101906100ec919061079d565b6105a3565b6040516100fe9190610aee565b60405180910390f35b60005481565b60606001805480602002602001604051908101604052809291908181526020016000905b8282101561025557838290600052602060002090600302016040518060600160405290816000820160009054906101000a900473ffffffffffffffffffffffffffffffffffffffff1673ffffffffffffffffffffffffffffffffffffffff1673ffffffffffffffffffffffffffffffffffffffff168152602001600182015481526020016002820180546101c490610d14565b80601f01602080910402602001604051908101604052809291908181526020018280546101f090610d14565b801561023d5780601f106102125761010080835404028352916020019161023d565b820191906000526020600020905b81548152906001019060200180831161022057829003601f168201915b50505050508152505081526020019060010190610131565b50505050905090565b6000601e600360003373ffffffffffffffffffffffffffffffffffffffff1673ffffffffffffffffffffffffffffffffffffffff16815260200190815260200160002054426102ad9190610c56565b116102ed576040517f08c379a00000000000000000000000000000000000000000000000000000000081526004016102e490610a8e565b60405180910390fd5b42600360003373ffffffffffffffffffffffffffffffffffffffff1673ffffffffffffffffffffffffffffffffffffffff16815260200190815260200160002081905550600160405180606001604052803373ffffffffffffffffffffffffffffffffffffffff168152602001600054815260200184815250908060018154018082558091505060019003906000526020600020906003020160009091909190915060008201518160000160006101000a81548173ffffffffffffffffffffffffffffffffffffffff021916908373ffffffffffffffffffffffffffffffffffffffff1602179055506020820151816001015560408201518160020190805190602001906103fc92919061067d565b50505060016000808282546104119190610c00565b925050819055503373ffffffffffffffffffffffffffffffffffffffff167ffb0eedb3dd967ac80a078ed8693cc6cca8402f3aa7070510e3edf24ff07011e74284604051610460929190610b09565b60405180910390a2606460025444426104799190610c00565b6104839190610c00565b61048d9190610d77565b60028190555060326002541161059a5747655af3107a400011156104e6576040517f08c379a00000000000000000000000000000000000000000000000000000000081526004016104dd90610aae565b60405180910390fd5b60003373ffffffffffffffffffffffffffffffffffffffff16655af3107a400060405161051290610a1a565b60006040518083038185875af1925050503d806000811461054f576040519150601f19603f3d011682016040523d82523d6000602084013e610554565b606091505b5050905080610598576040517f08c379a000000000000000000000000000000000000000000000000000000000815260040161058f90610ace565b60405180910390fd5b505b60019050919050565b60036020528060005260406000206000915090505481565b610651816040516024016105cf9190610a6c565b6040516020818303038152906040527f41304fac000000000000000000000000000000000000000000000000000000007bffffffffffffffffffffffffffffffffffffffffffffffffffffffff19166020820180517bffffffffffffffffffffffffffffffffffffffffffffffffffffffff8381831617835250505050610654565b50565b60008151905060006a636f6e736f6c652e6c6f679050602083016000808483855afa5050505050565b82805461068990610d14565b90600052602060002090601f0160209004810192826106ab57600085556106f2565b82601f106106c457805160ff19168380011785556106f2565b828001600101855582156106f2579182015b828111156106f15782518255916020019190600101906106d6565b5b5090506106ff9190610703565b5090565b5b8082111561071c576000816000905550600101610704565b5090565b600061073361072e84610b5e565b610b39565b90508281526020810184848401111561074b57600080fd5b610756848285610cd2565b509392505050565b60008135905061076d81610ef3565b92915050565b600082601f83011261078457600080fd5b8135610794848260208601610720565b91505092915050565b6000602082840312156107af57600080fd5b60006107bd8482850161075e565b91505092915050565b6000602082840312156107d857600080fd5b600082013567ffffffffffffffff8111156107f257600080fd5b6107fe84828501610773565b91505092915050565b600061081383836109ac565b905092915050565b61082481610c8a565b82525050565b600061083582610b9f565b61083f8185610bc2565b93508360208202850161085185610b8f565b8060005b8581101561088d578484038952815161086e8582610807565b945061087983610bb5565b925060208a01995050600181019050610855565b50829750879550505050505092915050565b6108a881610c9c565b82525050565b60006108b982610baa565b6108c38185610bde565b93506108d3818560208601610ce1565b6108dc81610e64565b840191505092915050565b60006108f282610baa565b6108fc8185610bef565b935061090c818560208601610ce1565b61091581610e64565b840191505092915050565b600061092d600c83610bef565b915061093882610e75565b602082019050919050565b6000610950600083610bd3565b915061095b82610e9e565b600082019050919050565b6000610973601383610bef565b915061097e82610ea1565b602082019050919050565b6000610996601183610bef565b91506109a182610eca565b602082019050919050565b60006060830160008301516109c4600086018261081b565b5060208301516109d760208601826109fc565b50604083015184820360408601526109ef82826108ae565b9150508091505092915050565b610a0581610cc8565b82525050565b610a1481610cc8565b82525050565b6000610a2582610943565b9150819050919050565b60006020820190508181036000830152610a49818461082a565b905092915050565b6000602082019050610a66600083018461089f565b92915050565b60006020820190508181036000830152610a8681846108e7565b905092915050565b60006020820190508181036000830152610aa781610920565b9050919050565b60006020820190508181036000830152610ac781610966565b9050919050565b60006020820190508181036000830152610ae781610989565b9050919050565b6000602082019050610b036000830184610a0b565b92915050565b6000604082019050610b1e6000830185610a0b565b8181036020830152610b3081846108e7565b90509392505050565b6000610b43610b54565b9050610b4f8282610d46565b919050565b6000604051905090565b600067ffffffffffffffff821115610b7957610b78610e35565b5b610b8282610e64565b9050602081019050919050565b6000819050602082019050919050565b600081519050919050565b600081519050919050565b6000602082019050919050565b600082825260208201905092915050565b600081905092915050565b600082825260208201905092915050565b600082825260208201905092915050565b6000610c0b82610cc8565b9150610c1683610cc8565b9250827fffffffffffffffffffffffffffffffffffffffffffffffffffffffffffffffff03821115610c4b57610c4a610da8565b5b828201905092915050565b6000610c6182610cc8565b9150610c6c83610cc8565b925082821015610c7f57610c7e610da8565b5b828203905092915050565b6000610c9582610ca8565b9050919050565b60008115159050919050565b600073ffffffffffffffffffffffffffffffffffffffff82169050919050565b6000819050919050565b82818337600083830152505050565b60005b83811015610cff578082015181840152602081019050610ce4565b83811115610d0e576000848401525b50505050565b60006002820490506001821680610d2c57607f821691505b60208210811415610d4057610d3f610e06565b5b50919050565b610d4f82610e64565b810181811067ffffffffffffffff82111715610d6e57610d6d610e35565b5b80604052505050565b6000610d8282610cc8565b9150610d8d83610cc8565b925082610d9d57610d9c610dd7565b5b828206905092915050565b7f4e487b7100000000000000000000000000000000000000000000000000000000600052601160045260246000fd5b7f4e487b7100000000000000000000000000000000000000000000000000000000600052601260045260246000fd5b7f4e487b7100000000000000000000000000000000000000000000000000000000600052602260045260246000fd5b7f4e487b7100000000000000000000000000000000000000000000000000000000600052604160045260246000fd5b6000601f19601f8301169050919050565b7f5761697420333020736563730000000000000000000000000000000000000000600082015250565b50565b7f46756e6473206e6f7420617661696c61626c6500000000000000000000000000600082015250565b7f5769746864726177616c206661696c6564000000000000000000000000000000600082015250565b610efc81610c8a565b8114610f0757600080fd5b5056fea264697066735822122058e730be5e263c68e21d64cf784826587055c8b18e34f648f6b8aac775de608464736f6c63430008040033",
    "linkReferences": {},
    "deployedLinkReferences": {}
}